:1000000010C017C016C015C014C013C012C011C054
:1000100010C00FC00EC00DC00CC00BC00AC009C07C
:1000200008C011241FBECFE5D2E0DEBFCDBF02D095
:100030002DC0E6CF1BBA18BA8FEF8ABB87E087BB0B
:1000400040E054E081E090E011C09C01042E01C02A
:10005000220F0A94EAF72BBB2FEF35EA6EE021500E
:1000600030406040E1F700C000004F5F48306CF363
:100070001BBA58BB2FEF35EA4EE0215030404040CC
:10008000E1F700C0000018BA40E0DFCFF894FFCFDE
:00000001FF
